:020000040800F2
:100000000040002005100008D5000008D7000008B7
:1000100000000000000000000000000000000000E0
:10002000000000000000000000000000D9000008EF
:100030000000000000000000DB000008DD000008F8
:10004000511000085110000851100008511000080C
:1000500051100008511000085110000851100008FC
:1000600051100008511000085110000851100008EC
:1000700051100008511000085110000851100008DC
:1000800051100008511000085110000851100008CC
:1000900051100008511000085110000851100008BC
:1000A00051100008511000085110000851100008AC
:1000B000511000085110000851100008511000089C
:1000C0004C12000800000020040000200400002062
:1000D0001C0000207047FEE77047704710B500F025
:1000E00005FA10BD0121114B1A680A431A605868BD
:1000F0000F4A02405A6018680E4A02401A60186897
:100100000D4A02401A6058680C4A02400F205A609B
:10011000DA6A8243DA62186B094A02401A635A6B40
:100120008A435A6300229A607047C046001002401A
:100130000CB8FF08FFFFF6FEFFFFFBFFFFFFC0FF4D
:100140002CFEFCFFF8B50C23164E174D72681340B9
:10015000042B01D0082B02D0144B2B6018E00F2386
:1001600074687268F16AC02719408023A4027F0274
:10017000240F3A40023401315B029A4203D0BA4262
:1001800001D10B4800E0094800F0ECFE44432C602C
:100190007368084A1B061B0FD35C2A68DA402A6082
:1001A000F8BDC046001002400000002000127A0096
:1001B000006CDC0214120008574AF0B582181400D3
:1001C0000B6889B0621E9441049300230391059447
:1001D000049ADA4000D19CE001229A409446644699
:1001E000049A2240029200D191E0039A526801924F
:1001F0001022019F9743022F0ED107240F261C4087
:10020000A400A640DA0892008218156A0399B54343
:100210000E69A64035431562032214005E00B44007
:100220000199E4430A40B2400568013F25402A4352
:100230000260012F0FD803998268CD686146B540EE
:1002400022402A43826042688A430199CD06ED0F1D
:100250009D402A434260C2681440039A9268B240AB
:100260001443019AC460D20051D501212B4A0327BF
:1002700094691E000C43946192699C080A4007929D
:10028000079A274AA400A4180F223E40B600B240A5
:100290009021A568C9059543002288420DD02149C7
:1002A0000132884209D020490132884205D03A0003
:1002B0001E4FB84201D0059A0432B24002992A4337
:1002C0000D00A2601A4ACC43166801993543C90350
:1002D00001D43500254015605668029D01993543CB
:1002E000890301D43500254055609668029D019927
:1002F0003543C90201D4350025409560D568029E7A
:1003000001992E43890201D425402E00D660013385
:100310005EE709B0F0BDC04600F0FFB70010024034
:10032000000001400004004800080048000C00489C
:1003300000040140F0B5344A85B082180291514260
:10034000514100230391029ADA405AD001229A4087
:1003500094466146029A0A40019250D003245A0002
:100360009440E2430F24072526001D40AD00AE4017
:100370006546016811400160D908890041180F6A7B
:10038000B7430F6281689026114081604168F6058D
:10039000A9434160C1681D000A40C26099081B4A18
:1003A0008900891803221540AD00AC408F680022F7
:1003B0002740B0420ED0164E0132B0420AD0154E40
:1003C0000132B04206D0144E0132B04202D0039E38
:1003D0000232921BAA40974211D18A68A2438A60D6
:1003E00001990E4AC94314680C40146054680C40CB
:1003F000546094680C409460D4682140D16001330B
:10040000A1E705B0F0BDC04600F0FFB70000014015
:100410000004004800080048000C004800040140A7
:1004200000690840411E8841C0B27047002A01D0CF
:10043000816100E0816270474369594041617047C2
:10044000802382B05B020193019B0B430193019BCC
:10045000C361C161019BC361C3690193C369012089
:100460001B0C984302B070477047044B10B55A6993
:10047000104202D05861FFF7F7FF10BD00040140A1
:1004800070477047012210B50024064B52421A6192
:100490001C61DA60DC609A629C62FFF7F2FF200068
:1004A00010BDC0460010024010B5040000F002FC70
:1004B000FA21890000F056FD00F0E4FC0120002242
:1004C0002100404200F08CFC002010BD1021064AA3
:1004D00010B5136803200B431360FFF7E5FFFFF728
:1004E000CFFF002010BDC04600200240024A136822
:1004F000013313607047C04618000020014B186894
:100500007047C0461800002013B50190FFF7F6FFB2
:100510000400FFF7F3FF019B001B9842F9D313BDC2
:100520000221024A13688B431360704710E000E019
:100530000221024A13680B431360704710E000E089
:10054000822040047047024B1868000C7047C04678
:1005500000580140024B18680005000D7047C04666
:10056000005801400221024A53680B435360704710
:10057000005801400221024A53688B435360704780
:10058000005801400421024A53680B4353607047EE
:10059000005801400421024A53688B43536070475E
:1005A0000058014081210C4B1A680A431A605968AF
:1005B0000A4A0A405A601968094A0A401A601968CA
:1005C000084A0A401A6000225A60DA621A639A6086
:1005D000054A064B1A607047001002400CF8FFF005
:1005E000FFFFF6FEFFFFFBFF00127A000000002075
:1005F000F0B5036885B00500DB0703D42B689B07C3
:1006000059D4A4E00C23BD4C62681A40042A0BD0D4
:1006100062681340082B0FD1C02362685B0213404D
:1006200080225202934207D123689B03E6D56B6870
:10063000002BE3D101200AE26B68012B16D0002BBE
:100640000DD12268AE4B8026134023602268AD4B4B
:10065000B60213402360FFF751FF070027E0052B88
:1006600009D180222368D2021343236080222368A9
:100670005202134306E02268A14B13402360226814
:10068000A04B13402360FFF739FF80260700B60216
:1006900023683342B2D1FFF731FFC01B6428F7D97A
:1006A0000320D4E1FFF72AFFC01B6428F8D8236891
:1006B0003342F7D1A2E70C23904C62681A420BD068
:1006C00062681340082B15D1C02362685B02134097
:1006D0008022120293420DD123689B0702D5EB685A
:1006E000012BA7D1F82123682A698B43D200134339
:1006F00023602CE0EB680122002B18D0236802262F
:1007000013432360FFF7FAFE070023687B49334257
:1007100005D1FFF7F3FEC01B0228F6D9C0E7F82089
:100720000B682A698343D20013430B600FE02368F0
:10073000022693432360FFF7E1FE0700236833425C
:1007400005D0FFF7DBFEC01B0228F7D9A8E72B680E
:100750001B0703D42B685B0725D483E0EB690122D8
:10076000664C002B0FD0636A022613436362FFF7C7
:10077000C5FE0700636A3342ECD1FFF7BFFEC01B22
:100780000228F7D98CE7636A022693436362FFF776
:10079000B5FE0700636A3342DCD0FFF7AFFEC01B33
:1007A0000228F7D97CE780230021544C5B05E269DD
:1007B00000911A4208D1E2691A43E261E2691340EA
:1007C0000393039B0123009380274F4E7F003368E0
:1007D0003B4205D0AB68012B12D1226A13432EE0B5
:1007E00033683B433360FFF789FE019033683B4237
:1007F000F0D1FFF783FE019BC01A6428F6D94FE7BA
:100800000122002B0BD1236A022793432362236A20
:10081000033293432362FFF771FE060018E0052BB5
:1008200007D10421236A0B432362236A1A432262FD
:10083000FEE0236A934304222362236A93432362E4
:10084000F6E0FFF75BFE314B801B984200D927E7AB
:10085000236A3B42F5D1009B012B03D1E2692C4B6B
:100860001340E3612B68DB0641D56A69234C0423FE
:10087000012A1BD1616B02260B436363636B1A432E
:100880006263FFF73BFE0700636B1C49334205D1EF
:10089000FFF734FEC01B0228F6D901E7F8204B6BA6
:1008A000AA698343D20013434B6320E005320AD187
:1008B000F821626B9A436263636BAA698B43D2002F
:1008C0001343636313E0626B0226134301226363E5
:1008D000636B93436363FFF711FE0700636B33425F
:1008E00005D0FFF70BFEC01B0228F7D9D8E62B680E
:1008F0009B060FD46A6A002A4AD17AE000100240AF
:10090000FFFFFEFFFFFFFBFF0070004088130000A9
:10091000FFFFFFEF0C234F4C62681A409A4209D048
:1009200062681340082B0DD1C02263685202134045
:10093000934207D1636BDB03DCD52B6A012B00D01C
:1009400078E6D7E72B6A002B10D08026636B7602FF
:1009500033436363FFF7D2FD0700636B3342C9D1B2
:10096000FFF7CCFDC01B0228F7D999E6626B3A4B22
:10097000802613406363FFF7C1FD07007602636BB7
:100980003342B7D0FFF7BAFDC01B0228F7D987E67C
:100990000C23304C61680B40082B00D14AE62F4BEA
:1009A000022A34D12268802613402360FFF7A6FD77
:1009B0000700B6042268274B32421CD10F21DA6AA5
:1009C0008A43296B0A43DA62A96AE86A5A680843CB
:1009D000234980250A40802102435A601A6849044D
:1009E0000A431A60FFF78AFD0600AD0423682B4214
:1009F00007D000202BE0FFF781FDC01B0228D9D9CA
:100A00004EE6FFF77BFD801B0228EFD948E62268FF
:100A1000802513402360FFF771FD0600AD042368B5
:100A20002B42E6D0FFF76AFD801B0228F7D937E694
:100A3000FFF764FD02270600236A3B4200D00AE765
:100A4000FFF75CFD074B801B9842F5D928E605B0FF
:100A5000F0BDC04600100240FFFFFEFFFFFFFFFE9B
:100A6000FF7FC2FF8813000070B586B00D0016002E
:100A70000021142201A800F087FB02230293013316
:100A80000493FD330193802390200A4C9B026269FA
:100A900001A91A4362616269C00513400093009B7B
:100AA000FFF78AFB6268044B13401E4335436560C1
:100AB00006B070BD00100240FFFFFF808021034A96
:100AC000090313680B4313607047C04600100240CF
:100AD000024A034B11680B4013607047001002403C
:100AE000FFFFF7FF30B5194C89B01022210068468E
:100AF00000F00CFB210004AD10311022280000F0A2
:100B000005FB0C2212494B681A40082A03D00C2A14
:100B100019D1104818E068469A02120F845C0F221F
:100B2000C96A80200A40A95CC022520213404002D8
:100B3000834206D0934204D1064800F013FA604382
:100B400002E00548F9E7044809B030BD2C1200085E
:100B500000100240006CDC0200127A000123F7B59D
:100B60004E4D06002A6801911A408A420AD3326823
:100B7000930713D5F0204A494B688343B068034379
:100B80004B600BE02A6801999A430A432A602A685D
:100B90001340019A9A42EAD001207DE0D30707D49E
:100BA0000123296801983D4A1940884256D35BE0E9
:100BB00073683B4C012B03D1226892030FD4EBE7FF
:100BC000022B03D12268920109D4E5E7032B03D15C
:100BD000626BD20303D4DFE722689207DCD50321DE
:100BE00062688A4313436360FFF788FC73680700F9
:100BF000012B0CD10C2263681340042BD0D0FFF7DB
:100C00007DFC284BC01B9842F4D9032044E0022B02
:100C10000BD10C2263681340082BC1D0FFF76EFC88
:100C2000204BC01B9842F4D9EFE7032B11D10C22C3
:100C3000636813409342B3D0FFF760FC194BC01BAD
:100C40009842F4D9E1E7FFF759FC164BC01B9842D4
:100C5000DBD80C2263681342F5D1A1E711689943F0
:100C6000116012681A4297D133680D4C5B0705D5A5
:100C700062680D4B1340F26813436360FFF732FF65
:100C800063680A4A1B061B0FD35CD840084B1860E8
:100C90000320FFF709FC0020FEBDC04600200240F3
:100CA0000010024088130000FFF8FFFF1412000834
:100CB00000000020014B18687047C046000000206B
:100CC000044B054A5B685B055B0FD35C034A106805
:100CD000D840704700100240241200080000002095
:100CE0003F230360274B1A68520301D5052205E014
:100CF0008022196852020A4000D00122012142607C
:100D00001A680A4001D0C16000E0C2601A68120689
:100D1000D20E02611A6A520701D5052206E00121AE
:100D2000184A126A0A4001D0816000E08260012204
:100D3000596A114001D0C26100E0C161596B0A409B
:100D400000D00122012142615A6B1206D20E82614B
:100D50005A6B120C0A4002621A68D20102D50222B2
:100D6000426200E04162C022596852020A40826237
:100D7000F022596892030A40C262DA6A0F231340D4
:100D800003637047001002400723032203600A4BED
:100D900010B55C6822404260F0225C6822408260AC
:100DA0005A68E023DB001340C360044B1A68012338
:100DB00013400B6010BDC0460010024000200240EE
:100DC000704710B58024044B9B68234203D0FFF783
:100DD000F7FF024B1C7010BD001002400A100240C9
:100DE00070B58901002814DA0F23C0B20340083B14
:100DF000114A9B0803249B009B18FF222040A0401F
:100E000014000A4084408240DD69A5432A43DA6128
:100E100011E08208094B03259200D218FF232840D5
:100E2000A8401D00C02485400B408340A4001659F3
:100E3000AE433343135170BD00ED00E000E100E02C
:100E40001F2318401E3B8340014A13607047C04671
:100E500000E100E01F2318401E3B8340014AD36796
:100E60007047C04604E100E0BFF34F8F034A044BD4
:100E7000DA60BFF34F8FC046FDE7C0460400FA05B5
:100E800000ED00E0094A431E012093420DD8C02026
:100E9000074A084953600B6A00061B021B0A0343FA
:100EA0000B6200200723906013607047FFFFFF0074
:100EB00010E000E000ED00E0031E0CDA0F23C2B2E8
:100EC0001340083B9B080A499B005B1858680323A2
:100ED0001340DB0007E08208C032064992005058F8
:100EE000032213409340D840C0B280097047C046E7
:100EF00018ED00E000E100E01F2318401E3B834096
:100F0000014A53607047C046FCE100E01F22044BD9
:100F100010405B68C3401800012318407047C0466A
:100F2000FCE100E01F23C02218401E3B8340024921
:100F300052008B507047C04600E100E0054B1A6834
:100F4000042802D11043186002E004218A431A6089
:100F50007047C04610E000E0704710B5FFF7FCFF97
:100F600010BDC046002934D00123002210B48842AD
:100F70002CD301242407A14204D2814202D20901C8
:100F80001B01F8E7E400A14204D2814202D24900E9
:100F90005B00F8E7884201D3401A1A434C08A0428C
:100FA00002D3001B5C0822438C08A04202D3001B22
:100FB0009C082243CC08A04202D3001BDC08224339
:100FC000002803D01B0901D00909E3E7101C10BC5D
:100FD0007047002801D00020C04307B4024802A196
:100FE0004018029003BDC046190000000029F0D04F
:100FF00003B5FFF7B9FF0EBC4243891A1847C04634
:101000007047C0460C488546002103E00B4B5B58F7
:10101000435004310A480B4B42189A42F6D30A4A0D
:1010200002E0002313600432084B9A42F9D3FFF721
:1010300059F800F00FF8FEE7004000204C120008BD
:101040000000002004000020040000201C000020FC
:10105000FEE7000030B593B0FFF738FA2023059380
:10106000C0235B02012502240F93002305A80D95E0
:101070000E9411951093FFF7BBFA002800D0FEE7FD
:10108000072303900490290001A801930294FFF71D
:1010900065FD002800D0FEE78023194A1B03516933
:1010A000184C194351615169174819400191019930
:1010B0005169194351615269210013400593059B01
:1010C0000323E3603D3323606560A560FFF774F898
:1010D000802321005B000C482360FFF76DF840215E
:1010E0000948FFF7A9F96420FFF70EFA80210648A6
:1010F0004900FFF7A1F96420FFF706FAEFE7C046C1
:1011000000100240040000200008004870B50F2ABB
:1011100032D90C0004430B00A40731D115000400A0
:10112000103D2D0901352D0149191E6826605E68A4
:1011300066609E68A660DE681033E66010349942EF
:10114000F3D10F2345191340032B1BD91C1F002378
:10115000A4080134A400CE58EE5004339C42FAD1C6
:1011600003232D1909191A4005D00023CC5CEC5437
:1011700001339A42FAD170BD0500002AF5D1FAE791
:101180000500F2E71A00F8E770B583073FD0541E58
:10119000002A3BD0CEB20300032503E0621E002CE0
:1011A00034D0140001335A1E16702B42F6D1032C92
:1011B00024D9FF250D402A0215432A0415430F2C7C
:1011C00011D92600103E3609013636011A009B1946
:1011D000156055609560D56010329342F8D10F22AA
:1011E0001440032C0AD9261FB6080136B6001A008F
:1011F0009B1920C29342FCD103221440002C05D03D
:10120000C9B21C19197001339C42FBD170BD140086
:041210000300CCE724
:1012140000000000000000000102030406070809A2
:101224000000000001020304020304050607080984
:101234000A0B0C0D0E0F101001020304050607081B
:08124400090A0B0C0D0E0F103E
:04124C0000127A0012
:0400000508001005DA
:00000001FF
